:020000040800F2
:10000000080D0020A1010008A9010008AB010008AB
:1000100000000000000000000000000000000000E0
:10002000000000000000000000000000AD0100081A
:10003000000000000000000031170008B1010008B6
:10004000B301000800000000B3010008B30100087C
:10005000B3010008C1110008B3010008B301000892
:1000600000000000B3010008B3010008B30100085C
:10007000B3010008B3010008B3010008000000004C
:10008000191A00080000000000000000B301000879
:10009000B3010008B3010008B3010008B301000870
:1000A000B3010008B3010008B3010008511C0008A7
:1000B000B301000800F002F800F047F80CA030C8C7
:1000C000083824182D18A246671EAB4654465D46D4
:1000D000AC4201D100F039F87E460F3E0FCCB64657
:1000E0000126334200D0FB1AA246AB4633431847E1
:1000F000B4300000D4300000103A02D378C878C180
:10010000FAD8520701D330C830C101D504680C6059
:10011000704700000023002400250026103A01D378
:1001200078C1FBD8520700D330C100D50B607047AF
:100130001FB500F0C3F904000020002101F01CFFEE
:10014000401C60601FBD10B510BD00F051FA114693
:10015000FFF7EEFF01F0E0FE00F069FA03B4FFF7ED
:10016000F2FF03BC00F06CFA70B505460C4616466B
:1001700002E00FCC0FC5103E102EFAD2082E02D38B
:1001800003CC03C5083E042E07D301CC01C5361F9E
:1001900003E021782970641C6D1C761EF9D270BDB5
:1001A0000748804707480047FEE7FEE7FEE7FEE70F
:1001B000FEE7FEE704480549034A054B7047000087
:1001C000C9190008B5000008080B0020080D002020
:1001D000080B002010B500F071F9001D10BD00BF24
:1001E000991D0000431A70B593421BD289188018DC
:1001F00004E0491E401E0B78521E03709307F8D18D
:1002000006E01039103878C9103978C01038103A23
:10021000102AF6D203E0091F001F0B680360121FAB
:10022000F9D570BDFFF7A0FF70BDF8B506461446BE
:100230000843800707D0751AA54219D20819102D56
:1002400013D2311907E03046FFF7CCFFF8BD401E4E
:10025000491E02780A70641EF9D2F8BD471B2A466F
:10026000394600F02FF9641B3846A542F6D3011B2E
:100270002246304600F026F9F8BDD2B210B513027E
:100280009A1813049A1800F00EF810BD01E004C08B
:10029000091F0429FBD28B0701D50280801CC907E6
:1002A00000D00270704700290BD0C30702D0027043
:1002B000401C491E022904D3830702D50280801CFA
:1002C000891EE3E70022EEE70022DFE700220309B0
:1002D0008B4273D3030A8B4258D3030B8B423CD31C
:1002E000030C8B4221D312E003460B437FD4002240
:1002F00043088B4274D303098B425FD3030A8B42BA
:1003000044D3030B8B4228D3030C8B420DD3FF2223
:10031000090212BA030C8B4202D31212090265D0F1
:10032000030B8B4219D300E0090AC30B8B4201D3A4
:10033000CB03C01A5241830B8B4201D38B03C01AEB
:100340005241430B8B4201D34B03C01A5241030B62
:100350008B4201D30B03C01A5241C30A8B4201D313
:10036000CB02C01A5241830A8B4201D38B02C01ABE
:100370005241430A8B4201D34B02C01A5241030A35
:100380008B4201D30B02C01A5241CDD2C3098B421A
:1003900001D3CB01C01A524183098B4201D38B0197
:1003A000C01A524143098B4201D34B01C01A52413A
:1003B00003098B4201D30B01C01A5241C3088B427F
:1003C00001D3CB00C01A524183088B4201D38B006A
:1003D000C01A524143088B4201D34B00C01A52410C
:1003E000411A00D201465241104670475DE0CA0FE3
:1003F00000D04942031000D34042534000229C46A3
:1004000003098B422DD3030A8B4212D3FC228901AC
:1004100012BA030A8B420CD3890192118B4208D382
:10042000890192118B4204D389013AD0921100E0E4
:100430008909C3098B4201D3CB01C01A52418309F8
:100440008B4201D38B01C01A524143098B4201D325
:100450004B01C01A524103098B4201D30B01C01A50
:100460005241C3088B4201D3CB00C01A52418308CA
:100470008B4201D38B00C01A5241D9D243088B4220
:1004800001D34B00C01A5241411A00D201466346C3
:1004900052415B10104601D34042002B00D5494227
:1004A000704763465B1000D3404201B50020C04650
:1004B000C04602BD70477047704700000048704753
:1004C000C80A0020F8B5042A2CD3830712D00B7871
:1004D000491C0370401C521E83070BD00B78491C2B
:1004E0000370401C521E830704D00B78491C037014
:1004F000401C521E8B079B0F05D0C91ADF0020231A
:10050000DE1B08C90AE0FFF72FFEF8BD1D4608C92B
:10051000FD401C46B4402C4310C0121F042AF5D2E3
:10052000F308C91A521EF0D40B78491C0370401C02
:10053000521EEAD40B78491C0370401C012AE4D4F3
:1005400009780170F8BD000000487047A80A002033
:1005500082078B079A4237D170B5920F0AD00324D5
:1005600002780B78401C491C002A2BD09A4229D1D2
:100570002042F5D11D4EF40104C808C9951B9543CE
:10058000254010D19A4207D104C808C9951B95434C
:10059000254008D19A42EFD012BA1BBA01209A42E4
:1005A00000D2404270BD12BA1BBA2DBA18241000F6
:1005B000E0401900E140401A05D12E00E64002D18A
:1005C000083CF4D1D01A70BD02780B78401C491C4D
:1005D000002A09D09A4207D102780B78401C491CA6
:1005E000002A01D09A42EFD0D01A704701010101D0
:1005F0007546FFF7A9FFAE46050069465346C00899
:10060000C000854618B020B5FFF7D4FD60BC0027B8
:100610004908B6460026C0C5C0C5C0C5C0C5C0C5CE
:10062000C0C5C0C5C0C5403D49008D46704710B526
:100630000446C046C0462046FFF790FD10BD0000AE
:1006400001491820ABBEFEE72600020070470000FB
:10065000002862D0F8B5314C0546202806D21B2D63
:1006600002D000F0A1FBF8BD012026E020782B4944
:100670000007000F00274E780528F4D201007944C6
:10068000097949188F4404081B1F02002770F8BD20
:10069000284601F0CDFBF8BD5B2D03D0284600F0C5
:1006A00015FDF8BD1021E01CFFF70CFE700940019C
:1006B000DF21A7700840607002202070F8BD032081
:1006C00020703F2D10D0FFF785FD0068415D134875
:1006D0004078C006C00E20290AD03B2D12D0A5704C
:1006E00000F0B2F82770F8BD202006436670F8BD10
:1006F0001028FCD20019C1780A2251434919303917
:10070000C170F8BD1028FCD20520C6410120C006EA
:1007100030181B21C8416070F8BD7047920A002054
:10072000F8B541493F480860404801784908490008
:10073000017001780222114301700178F722114003
:1007400001700178DF2529400170002444701D21CB
:10075000817037490A7992089200921C0A714C7094
:100760008C700A78334B1A704A785A708A789A706B
:10077000CA78D606DA78F60E520952013243CE789C
:100780002A40B606F60F76013243CE78BF277606AA
:10079000F60FB6013A403243DA7009798907890FBA
:1007A00019710178244ACB071178DB0F49084900F9
:1007B00019430378FD269B07DB0F5B00314019438B
:1007C0000378FB265B07DB0F9B003140194303785E
:1007D000F7261B07DB0FDB00314019430378EF26B8
:1007E000DB06DB0F1B0131401943037829409B06D0
:1007F000DB0F5B0119431170417851708178917062
:100800000E490C700E490C700078000701D5A0222B
:1008100000E020224B2149010A48FFF72EFD00F09D
:1008200053FBF8BDE51E0008D4000020C1000020E5
:10083000C7000020CC000020C4000020920A002045
:10084000C0000020E0000020F8B5FD4EFD4B304612
:10085000B4780179FC4FFD4DC0784D2C7ED00DDC75
:10086000413C0C2C7BD222007A4412799218974496
:10087000243545525F7E97A076B5F7F5F04A6C2C8B
:1008800052786DD00CDC632C6BD004DC532C69D017
:10089000542C64D132E1662C65D0682C5FD1DBE149
:1008A0006D3C092C5BD223007B441B79DB189F44F1
:1008B000F9F8565656F7F656F500002800D10120F3
:1008C00029788906B97802D56A78891AC9B281422D
:1008D0004CD3B978081AC1B278783EE0002800D12C
:1008E0000120AA786978511A81423FDBB97808184B
:1008F000C1B2A878884239D378782EE003203056E8
:10090000002800D10120797809184F292EDCB97808
:100910007A7810184BE003203056002800D10120CF
:100920007978814222DBB9787A78101AC0B214E063
:10093000F0780006000E00D10120A9786A78891AA3
:10094000814213DBB9780818C1B2A87888420DD368
:10095000787800F003FFB978002005E0C4E0E2E118
:100960002AE1B8E1C7E024E000F0F8FEF8BDF07835
:100970000006000E00D1012029788906B97802D539
:100980006A78891AC9B28142F0D3B978081AC1B21B
:10099000787800F0E3FEB978002000F0DFFEF8BDC3
:1009A00003203056002800D10120B978401EC0B283
:1009B000D3E70246002900D10121002A00D10122FB
:1009C000491EC8B2521ED1B22A78920602D56A7860
:1009D0005118C9B2AA788A42E1D3BEE7002808D0EC
:1009E000012820D00228DAD1287800072DD5A022AE
:1009F0002CE02878000701D5A02200E02022B8785A
:100A00001D21081A5021484379785024611A7C78B6
:100A10004118B87850256843C0182018FFF72DFCFE
:100A200000F052FAF8BD2878000701D5A02200E0B6
:100A300020227978B87850235843401C09188148FF
:100A4000FFF71BFC00F040FAF8BD20224B214901C2
:100A50007C48FFF712FC00F037FAF8BD3EE0FFE7F4
:100A6000002808D001281ED00228F6D128780007D7
:100A70002AD5A02229E02878000701D5A02200E08D
:100A800020227978B87850246043C0180818797803
:100A9000611AFFF7F2FB00F017FAF8BD88E084E076
:100AA0001EE14BE02DE02878000701D5A02200E0F0
:100AB00020227978B87850246043C018491CFFF789
:100AC000DCFB00F001FAE8E72022B8785021484327
:100AD000C018FFF7D2FB00F0F7F9DEE7A978B87885
:100AE00000F0D8FEB9781CE1A978B87800F0FCFED7
:100AF000B978002031E700F023FFCEE700F092FE46
:100B0000CBE700200823F721D206D20E3418E47870
:100B1000002C04D0072C05D01B2C0AD106E02C7821
:100B20000C4001E02C781C432C7002E02C780C4027
:100B30002C70401CC0B28242E8D2AEE705282DD00E
:100B400006280ED04228A8D11B2000F03DFE5B20D5
:100B500000F03AFE387800F049FE522000F034FEF2
:100B60009BE71B2000F030FE5B2000F02DFE287874
:100B70008006B87802D56978401AC0B2401CC0B26D
:100B800000F034FE3B2000F01FFE7878401CC0B21D
:100B900000F02CFE522000F017FE7EE71B2000F034
:100BA00013FE2BA000F0F6FD77E700F0F3F974E7F1
:100BB000284881784078D0E600243019C07807288A
:100BC0001ED004DC042833D0062831D104E01428D8
:100BD0001AD019282CD11CE07078800628D52878E6
:100BE000DF2108402870002228781146800600D5B1
:100BF0006978A87888421BD3104600F0AFFD17E053
:100C000028784008400002E02878FB21084028703E
:100C10000EE0707880060BD5387980088000387136
:100C200039787A78B87850235843064BC018115455
:100C30007078641CC006E4B2C00EA042BDD22CE79E
:100C4000920A0020E0000020C7000020C100002020
:100C50005B306E00CC000020002437460126381996
:100C6000C07807281ED004DC04282CD006282AD1FE
:100C700004E0142819D0192825D11BE078788006C3
:100C800021D5287820210843287000222878114691
:100C9000800600D56978A878884214D3104600F001
:100CA0005DFD10E02878304302E0287804210843F5
:100CB000287008E07878800605D5364801798908DB
:100CC0008900891C01717878641CC006E4B2C00EEA
:100CD000A042C4D2E1E61B2000F076FD2EA061E721
:100CE00068706878002802D068781E2801D9012031
:100CF0006870A970A878002802D0A8781E2801D9A9
:100D00001E20A8706878401E6870A878401EA870E1
:100D1000A8786978884203D26878A9786970A87041
:100D20006978002019E61EA402E0641C01F080F836
:100D3000002C02D020780028F7D17078800602D5E8
:100D40003F2001F075F800243019C578092D05D928
:100D50000A212846FFF7BAFA01F0B4F80A2128461A
:100D6000FFF7B4FA0846303001F062F87078C00638
:100D7000C00EA04202D93B2001F05AF87078641CE2
:100D8000C006E4B2C00EA042DED2B07801F050F846
:100D900083E60000C70000205B3F313B306300006A
:100DA0003C4553433E5B000010B504461C2C79D2F1
:100DB0002000784400790018874473747474740DAB
:100DC000747B11314444445E646A747B747B747434
:100DD00074747B747B70062000F0F6FC69E0374881
:100DE0004178002907D04278012A62DB8178407877
:100DF000401EC0B243E032490A78D20759D00A787F
:100E0000920604D582784978511AC9B200E08178F7
:100E100000294ED08078401EC1B24F202FE02748D5
:100E2000407808214007400F081A411ECCB2002824
:100E30003FD0202000F0FCFF2046641EE4B20028D2
:100E4000F7D136E01E4CA0786178401A01280ADB01
:100E5000A01D8178A278491CC9B28A4203D3407888
:100E600000F07CFC05E02078800702D5012000F02E
:100E700067FD207840071CD510488178002000F0DD
:100E80006DFC16E00E4801781022114304E009E0E1
:100E90000B480178EF22114001700AE00949012056
:100EA000087010BD5E2000F0C3FF4034E0B200F0D7
:100EB000BFFF04490020087010BD0000C7000020DB
:100EC000C1000020920A00200948C178490949015F
:100ED0001931C170C178DF221140C1704278817828
:100EE00050235943034BC918515C017070470000EF
:100EF000C7000020E000002030B522480179224AD6
:100F00008908137989009B079B0F194301711F48BA
:100F100001781F4B4C0819786400CD07ED0F2C4366
:100F200004700478FD252C408D07ED0F6D002C43D7
:100F300004700478FB252C404D07ED0FAD002C43C9
:100F400004700478F7252C400D07ED0FED002C43BD
:100F500004700478EF252C40CD06ED0F2D012C43B5
:100F6000047004788906DF25C90F2C4049010C4321
:100F7000047059784170997881709178507800F0B8
:100F8000EDFB30BDC7000020CC000020C1000020D8
:100F9000C400002030B42A4908782A4A10704878E2
:100FA000507088789070C878C306D078DB0E4009FE
:100FB00040011843CB789B06DB0F5C01DF23184010
:100FC0002043CC78BF256406E40FA40128402043C9
:100FD000D07008791C498007800F107108781B4A6F
:100FE000C4071078E40F4008400020430C78FD252A
:100FF000A407E40F6400284020430C78FB25640715
:10100000E40FA400284020430C78F7252407E40FC0
:10101000E400284020430C78EF25E406E40F240187
:10102000284020430C781840A406E40F64012043B4
:101030001070487850708878907030BC704700000D
:10104000C7000020CC000020C1000020C400002008
:1010500030B41848C178DF221140C170C1784A0607
:10106000154907D503784478827850256A4351188A
:10107000635410E0027992070DD002799207920F23
:10108000012A15D0027880235A404478837850256D
:101090006B4359186254C1784906C917491CC907DE
:1010A0004A0EC178BF2319401143C17030BC70474C
:1010B0005F22EAE7C7000020E00000200249087034
:1010C00008780028FCD1704700000020F8B5374DA3
:1010D000002607463D2866D011DC0420362F46D076
:1010E00006DC282F43D0292F41D0352F17D13EE0E1
:1010F000372F36D0382F37D03C2F10D153E04D2F1B
:1011000012D006DC3E2F4ED0442F26D0452F06D1DC
:101110000EE04E2F47D04F2F45D0632F01D024A48F
:101120002AE0FFF7FDFA3EE0012000F07BFB3AE009
:10113000214CA178304600F011FB2048817842789C
:10114000891A012909DBA1788078491CC9B2884233
:1011500003D3607800F002FB25E0012000F0F0FBF3
:1011600021E0FFF717FF1EE0FFF7C6FE1BE0287027
:10117000F8BD641C00F05CFE002C02D02078002832
:10118000F7D138093030392800D9C01D00F050FEA1
:101190003807000F3030392800D9C01D00F048FE54
:1011A0003E2000F045FE2E70F8BD0000920A00209F
:1011B0003C4553433E3C0000C7000020C1000020D6
:1011C00070B5434902204861424C60780921C30947
:1011D00001228720C9060025002B21D0637866787C
:1011E0005B061B0F5B1C1B075B0E06401E436670F5
:1011F0007006000F0C2804D02088C00704D00120FE
:1012000004E08A61258070BD012000048861208887
:1012100021884005800DC90AC9020143218070BDA3
:101220002D4B1E78002E00D1258009261E70098ABC
:10123000C9070CD0218863785B061B0F9A401143C5
:1012400049052288490DD20AD2020A4322806178D8
:101250004906090F491C09074A0E617801401143EC
:1012600061704806000F0B28D9D12088C00728D10B
:101270002088400525D520880022C005000E114693
:101280000423C607F60FB2184008C607F60F7118F8
:101290004008D2B2C9B25B1EF3D15018C00701D0CA
:1012A000002001E00120400221888905C90F490280
:1012B000884206D12088C005010E084800F02DF8AC
:1012C00003E0FF21054800F028F8258070BD0000EC
:1012D000000401405E0000200100002060000020AA
:1012E0000021817041707047427883789A420AD019
:1012F00082780378521C1A4082708278C01C105C7D
:101300000870012070470020704741788078814242
:1013100001D0012070470020704710B44378027854
:101320005B1C84781340A34209D043785B1C1340B4
:1013300043704278C01C115410BC0120704710BC8F
:1013400000207047417882789142FBD08178027802
:10135000491C114081708178C01C085C70470000F6
:1013600010B51049002088600F490222CA600B683E
:1013700013430B600D4908800D490A7892089200CA
:101380000A7088800B48FFF7ABFF0B490868FF2203
:101390001202904303229203104308600749202061
:1013A000086010BD00000140000401405E00002004
:1013B000580000206000002004E400E000E100E0AC
:1013C000F8B5FF24254E09270546FF06707840062C
:1013D000000F3AD1388A800737D52149202008608C
:1013E0000022284611460423C407E40FA21840082F
:1013F000C407E40F61184008D2B2C9B25B1EF3D132
:101400005018C00701D0002001E00120400269000F
:1014100008430121890208433188C90AC9020143EE
:10142000318070788021084370700E492020086058
:101430000420FFF743FE01204004B8610420FFF7B9
:101440003DFE0220B8610120F8BD0720FFF736FEFF
:10145000641E2406240EB9D10020F8BD5E000020D1
:1014600080E100E000E100E0F8B5A848FFF76AFF7E
:10147000A74DFF280FD0AA2815D02978A44C8A0799
:10148000920F16D0012A1AD0022A71D0032A09D14C
:10149000FA286ED026E12878800880002870FF2086
:1014A000FFF78EFFF8BD287880088000401C287068
:1014B000F8BDFA281DD089088900491C2970E02848
:1014C00019D0F0281BD00028F2D0A1885022CB05DB
:1014D0000827002B8F4B42DA902800D2185C0B06AD
:1014E00019D58D4A12250023167886420DD15078E1
:1014F0001BE0FF2001E1A08880210843ECE0A088E8
:10150000FF2101310843A080F8BD5B1CDBB2921CB7
:10151000AB42E9D3DCE0114203D0804A592803D31F
:1015200003E07F4A592800D2105CE03809284FD2E6
:1015300002007A4412799218974404060609CACA2E
:10154000CA0D0D00B94366E01020814363E02020FE
:101550008143A180BCE040208143A180B8E0902875
:1015600000D2185C114205D06C4A592805D306E018
:10157000B4E0C5E06A4A592801D2125C00E0024694
:10158000002A25D01346E03B0D2B46D21E007E4498
:101590003679B619B7440608080A0D1D2D3D3D41A0
:1015A0009C9C9C00394336E0102000E02020014341
:1015B00031E004204140A18028784907800880005C
:1015C000801C2870ED206070490FA170FFF7F8FEB5
:1015D0007EE002204140A1802878490780088000F1
:1015E000801C2870ED206070490FA170FFF7E8FEA5
:1015F0006EE001204140A1802878490780088000E2
:10160000801C2870ED206070490FA170FFF7D8FE94
:101610005EE040200143A1805AE0E92A14D18A0704
:101620000BD5404A0E260023157885420BD05B1C53
:10163000DBB2921CB342F7D34AE03B4A0E260023AA
:101640001578854213D15278100041D0802830D2CD
:101650000A0719D5014640391F2902D9213919290C
:1016600036D801466139192907D8202106E05B1CCC
:10167000DBB2921CB342E3D32AE00021401A403887
:10168000C0B200F0A1F823E00246413A192A02D97B
:10169000203A192A0AD8490708D50146613919297B
:1016A00001D8202100E00021401AC0B200F08CF8DF
:1016B0000EE0E0280CD210468038C5B2162D07D2B5
:1016C0001B2000F081F81949A800085800F062F8C2
:1016D000A088FF2181318843A080F8BDFA2804D07A
:1016E000FE2809D0880880000DE0A078FFF768FE8A
:1016F00028780321084306E06078FFF761FEF8BD13
:1017000088088000401C2870F8BD000060000020A0
:1017100058000020A41F00081E2100088D2000088A
:1017200034200008E620000802210008680000209C
:101730000120074AC006106020211160054A536845
:101740000343536030BF044A1060116070470000CB
:1017500080E100E000ED00E000E100E070B50A4A41
:1017600014785578937850267343084E9B19EC549F
:101770004F2808D81D2906D850709170FFF7A4FB98
:1017800003490020087070BDC7000020E000002061
:10179000C0000020F8B50446094E802709E0641C0B
:1017A00029460848FFF7B9FD0028F9D030683843CA
:1017B0003060002C02D02578002DF0D1F8BD00005B
:1017C000003801404500002010B504462146054878
:1017D000FFF7A3FD0028F9D00348016880221143D8
:1017E000016010BD450000200038014070B504467E
:1017F0000A21FEF76BFD0D46092C01D9FFF7F6FF14
:101800002C46303421460548FFF787FD0028F9D0E3
:101810000348016880221143016070BD450000202B
:1018200000380140F8B500281DD0401EC5B2164F43
:101830007C78B87815490A784B78897850267143B6
:10184000134E89195A54A04208D9021B5020424312
:101850006043811908465030FEF7E7FC38780007EE
:1018600003D5A02202E00025E1E7202250204443D6
:10187000A0195021FEF701FDFFF726FB28466D1E3B
:10188000EDB20028D4D1F8BDC1000020C70000206F
:10189000E000002070B5114A1478557892785023F2
:1018A0005A430F4BD218AC5450224243D4188142B1
:1018B00006D90A1A5020424321462018FEF7B5FCEB
:1018C00008480078000701D5A02200E02022204629
:1018D0005021FEF7D2FCFFF7F7FA70BDC7000020D9
:1018E000E0000020C100002070B50C4611490A78C4
:1018F0004B788978502569430F4D49195A548442D1
:1019000007D9221A502148434A4340194118FEF78B
:101910008CFC0A480078000701D5A02200E02022B4
:101920005020444360195021FEF7A7FCFFF7CCFA82
:1019300070BD0000C7000020E0000020C1000020B2
:10194000F8B500281CD0401EC7B21C4C6078A678A1
:101950001B490A784B78897850256943194D4919F4
:101960005A54864207D9321A502148434A434019F3
:101970004118FEF75AFC2078000703D5A02202E0A8
:101980000027E2E720225020464370195021FEF73D
:1019900074FCFFF799FA2078000701D5A02200E037
:1019A0002022A1785020414348195021FEF765FCC0
:1019B00038467F1EFFB20028C8D1F8BDC100002004
:1019C000C7000020E00000201149112008601148E4
:1019D0000168012212041143016001688903FCD5EA
:1019E0004260016801221206114301600168890109
:1019F000FCD5416802221143416041680907890F03
:101A00000229FAD1016849084900016070470000C5
:101A10000020024000100240F8B5824D288A834C15
:101A200043078148A17A00270918E27A6068002BF1
:101A300057DA804B7E4E1E63D20745D07E4A122372
:101A4000801D867836018E5D9670C67836018E5D73
:101A5000D670067936018E5D16714679001D360105
:101A60008E5D5671121D5B1EEBD1A07A401CC0B278
:101A7000A072102803D1A772606850306060A17A0C
:101A800069480A1860686D4903781B01D35C4B7084
:101A900043781B01D35C8B7083781B01D35CCB70C4
:101AA000C3781B01D35C0B7103791B01D35C4B71B1
:101AB00043791B01D35C8B7183791B01D35CCB71A0
:101AC000C0790001105C0872E07A800705D53121E9
:101AD0005B48490101604014A883288A0421884397
:101AE0009EE02B8ADB077DD02689731C23814F4B18
:101AF000DB7A5B085B00252E59D00BDC4B4FFF7A5D
:101B00003F07BC46BF0F022E0DD0042E1ED0242E40
:101B10005CD127E0FF3EFF3EB61F4BD0012E4BD0DD
:101B2000092E53D14CE0012040050921C9068861E6
:101B30006046810F2820002905D0022F03D0298B71
:101B40008143298342E0298B0143FAE7022F03D224
:101B500020210920C0068161FD200340E37239483D
:101B6000606033E001231A43E2720378334A1B01B9
:101B7000CB5C537043781B01CB5C937083781B0163
:101B8000CB5CD370C3781B01CB5C137103791B0151
:101B9000CB5C537143791B01CB5C937183791B013F
:101BA000CB5CD371C0790001085C10720EE002209A
:101BB000024303E0E37209E0FD200240E27205E027
:101BC0002781A7722068002800D08047E07A80072C
:101BD00016D51848016B4908490001635221416339
:101BE000164900E01DE0C163FF2115482131016065
:101BF0008014A883144841680122120711434160F0
:101C000012480178002902D00178491E01704178FC
:101C1000002902D04178491E4170288A40084000BE
:101C20002882F8BD000400404C210008D4000020A8
:101C30009130000000000240470A0020400A0020C6
:101C400040040040E000002000ED00E00000002023
:101C500038B50E4CE0690E4D800604D5A888C1B297
:101C60000C48FFF75AFBE069000608D569460A48A8
:101C7000FFF73AFB002803D068460078288138BD7A
:101C8000206880218843206038BD00000038014072
:101C900020380140020000204500002010B5104906
:101CA0008A6901239B031A438A6101680D48FEF784
:101CB0000DFB0D4988812D2008600C48FFF710FBB3
:101CC0000B48FFF70DFB0B4801680902090AC20621
:101CD0001143016001200849C006086010BD0000E2
:101CE0000010024080F0FA0200380140020000209B
:101CF0004500002018E400E000E100E03A484069B7
:101D00003A4908433849486188693949084336499E
:101D10008861C869022108433349C86109213548EF
:101D2000C90608600120000608620011C86003208F
:101D300088808861FF20113048620120C0038860DC
:101D40002D4908200860102008622C4904200860F2
:101D50002949082088602A49002008812949C02093
:101D6000486368200883D220886328492648088071
:101D700000200881192023498001C8628989052033
:101D8000204A01439181918A012211431D4A918287
:101D90001F498988D21311431D4A91801949098826
:101DA000014318480180C1211A48890001801A495D
:101DB00081800188402211430180194917488863B6
:101DC00018480168090A0902016017499002086071
:101DD000164AD069FF231B04984301239B0518432F
:101DE000D06188050860704700100240010046007D
:101DF0000150000055A528280004004800140048A0
:101E0000D400002000040040031000002004004023
:101E10004004004000300140120700000C30014037
:101E20000000024010E400E000E100E004ED00E00A
:101E3000F8B5044620480178C90604D52146603922
:101E4000202900D2CCB20178090701D580210C43AA
:101E50001A4E317801271A4D00291CD00178C90784
:101E60000BD0A9788278914209D2A878401CC1B2DF
:101E70000020FFF773FC2C70F8BD2C7016E0007882
:101E8000800708D50120FFF75BFDA9780020FFF748
:101E900065FC2C70F8BD2C7068784F2806D2A978A4
:101EA0006878401CC0B2FFF759FCF8BDA978687883
:101EB000FFF754FC3770F8BDC1000020C0000020BF
:101EC000C700002070B504460A21FEF7FFF90D4651
:101ED000092C01D9FFF7F6FF28463030FFF7A8FF9D
:101EE00070BD00000B48C178C278491CC906C90EF4
:101EF000520952010A43C270C178C906C90E1E298F
:101F000007D3C17820221143C170C1784909490122
:101F1000C1707047C700002082B0FFF7EFFE124982
:101F200008684968009001916846FFF7B7FEFFF71F
:101F300017FAFEF7F5FB0D4C0D48FFF7E6F9002800
:101F400004D00B48FFF7FEF9FEF782FB0948FFF7C4
:101F5000DCF9002801D0FFF787FAE0788006EBD59E
:101F6000FFF776F8E8E7000044210008C7000020EA
:101F7000020000206000002010B500290AD0087877
:101F8000002807D005487844FEF7E2FA002801D07F
:101F9000002010BD0248784410BD00003E12000031
:101FA00036120000FF43413F3D3B3C5864444240F1
:101FB0003E0F295965382A701D10025A66712C1F70
:101FC0001E11035B672E2D201205045C68392F213A
:101FD0001413065D693130232215075E6A723224BC
:101FE0001608095F6B332517180B0A606C34352609
:101FF00027190C616D7328741A0D626E3A361C1B1A
:10200000752B637655567778797A0E7B7C4F7D4BAE
:10201000477E7F6F5253504C4D480145574E514AB1
:1020200037494654808182415485868788898A8BC6
:102030008C8D8E8F001B3132333435363738393042
:102040002D3D080971776572747975696F705B5DF4
:102050000DE06173646667686A6B6C3B2760E15CE6
:102060007A786376626E6D2C2E2FE22AE320E4806C
:10207000818283848586878889E5E6E9E9E9E9E95B
:10208000E9E9E9E9E9E9E9E90000008A8B001B21B7
:10209000402324255E262A28295F2B08095157450D
:1020A00052545955494F507B7D0DE04153444647AA
:1020B000484A4B4C3A227EE17C5A584356424E4D98
:1020C0003C3E3FE22AE320E4808182838485868748
:1020D0008889E5E6E9E9E9E9E9E9E9E9E9E9E930F1
:1020E0002E0000008A8B372A4737483849394A2D55
:1020F0004B344C354D364E2B4F31503251335230DC
:10210000532E372A478C488D498E4A2D4B8F4C359C
:102110004D904E2B4F9150925193529453951C0DCC
:102120001DED2AE7352F36E837EA38EB46EC478CC9
:10213000488D498E4B8F4D904F91509251935294B0
:102140005395000000C201000000000000000000E4
:1021500000000000000000000000000055AA55AA81
:1021600055AA55AA55AA55AA55AA55AA0000000075
:1021700000FEFEFEFEFEFE0000000000000000006B
:1021800000000000FFFFFFFFFFFFFFFFFFFFFFFF5B
:10219000FFFFFFFF00000000000000000000000043
:1021A000101038387C7CFEFE0000000000000000AB
:1021B000FEFE7C7C38381010000000000000000497
:1021C0000C1C3C7C3C1C0C04000000000000004087
:1021D0006070787C787060400000000000000000B3
:1021E000FE0000FE0000FE00000000001818181895
:1021F000181818F80000000000000000000000009F
:10220000000000F818181818181818180000000016
:102210000000001F1818181818181818181818187F
:102220001818181F000000000000000018181818E7
:10223000181818FF181818181818181800183C7EC5
:10224000181818181818181818000000001818186E
:102250001818181818187E3C18000000000000001C
:10226000000000FF000000000000000000183C7E9D
:102270001818181818187E3C1800000000000000FC
:1022800000001818180000000000000018181818A6
:102290001818181F181818181818181818181818B7
:1022A000181818F8181818181818181818181818CE
:1022B000181818FF000000000000000000000000D7
:1022C000000000FF181818181818181818181818EF
:1022D00018181818181818181818181800000000DE
:1022E00000000000000000000000000000000000EE
:1022F00000000000000000000000000000000000DE
:1023000000000000000000000000000000000000CD
:1023100000000000000000000000000000000000BD
:1023200000000000000000000000000000000000AD
:10233000000000000000000000000000000000009D
:10234000000000000000000000000000000000008D
:102350000000000000000000000000000000183C29
:102360003C3C3C18180018180000000000363636B7
:1023700036140000000000000000000000006C6C3B
:102380006CFE6C6CFE6C6C6C000000000000181899
:102390007CC6C0783C06C67C18180000000000000F
:1023A0000062660C183066C6000000000000386C41
:1023B0003830767ECCCCCC7600000000000C0C0CC3
:1023C00018000000000000000000000000000C18D1
:1023D000303030303030180C000000000000301871
:1023E0000C0C0C0C0C0C183000000000000000005D
:1023F000006C38FE386C0000000000000000000097
:102400000018187E181800000000000000000000EE
:1024100000000000000C0C0C180000000000000080
:10242000000000FE000000000000000000000000AE
:10243000000000000000181800000000000000006C
:1024400002060C183060C0800000000000007CC64E
:10245000C6CEDEF6E6C6C67C000000000000187896
:10246000181818181818187E0000000000007CC604
:10247000C6060C183060C6FE0000000000007CC6D6
:1024800006063C060606C67C0000000000000C1C88
:102490003C6CCCCCFE0C0C1E000000000000FEC00A
:1024A000C0C0FC060606C67C0000000000007CC61A
:1024B000C0C0FCC6C6C6C67C000000000000FEC648
:1024C000060C1830303030300000000000007CC6B0
:1024D000C6C67CC6C6C6C67C0000000000007CC61E
:1024E000C6C6C67E0606C67C0000000000000000CE
:1024F000000C0C00000C0C000000000000000000AC
:10250000000C0C00000C0C0C180000000000000C6B
:10251000183060C06030180C00000000000000009F
:102520000000FE00FE00000000000000000000604F
:1025300030180C060C1830600000000000007CC64B
:10254000C60C1818180018180000000000007CC6FF
:10255000C6C6DEDEDEDCC07E000000000000386C97
:10256000C6C6C6FEC6C6C6C6000000000000FC66A1
:1025700066667C66666666FC0000000000003C66DD
:10258000C2C0C0C0C0C2663C000000000000F86CC1
:102590006666666666666CF8000000000000FE660F
:1025A00060647C64606066FE000000000000FE66FF
:1025B00060647C64606060F00000000000007CC625
:1025C000C6C0C0C0CEC6C67C000000000000C6C6A3
:1025D000C6C6FEC6C6C6C6C60000000000003C183F
:1025E000181818181818183C0000000000003C18B3
:1025F0001818181818D8D870000000000000C6C6B7
:10260000CCD8F0F0D8CCC6C6000000000000F060C6
:1026100060606060606266FE000000000000C6C688
:10262000EEEEFED6D6D6C6C6000000000000C6C636
:10263000E6E6F6DECECEC6C60000000000007CC690
:10264000C6C6C6C6C6C6C67C000000000000FC6642
:102650006666667C606060F00000000000007CC67A
:10266000C6C6C6C6C6D6D67C060000000000FC66FC
:1026700066667C786C6666E60000000000007CC63A
:10268000C0C0701C0606C67C0000000000007E5A18
:10269000181818181818183C000000000000C6C6CA
:1026A000C6C6C6C6C6C6C67C000000000000C6C6B8
:1026B000C6C6C6C6C66C3810000000000000C6C6FC
:1026C000C6D6D6D6FEEEC6C6000000000000C6C6BE
:1026D000C66C38386CC6C6C60000000000006666CE
:1026E0006666663C1818183C000000000000FEC634
:1026F000860C183060C2C6FE0000000000007C603E
:10270000606060606060607C0000000000000000AD
:1027100080C06030180C06020000000000007C0C35
:102720000C0C0C0C0C0C0C7C000000000010386C25
:10273000C6000000000000000000000000000000D3
:10274000000000000000000000FF00000018181842
:102750000C0000000000000000000000000000006D
:1027600000780C7CCCCCDC76000000000000E0603F
:10277000607C6666666666FC000000000000000083
:10278000007CC6C0C0C0C67C0000000000001C0C5D
:102790000C7CCCCCCCCCCC7E000000000000000037
:1027A000007CC6C6FEC0C67C0000000000001C36CF
:1027B0003030FC3030303078000000000000000085
:1027C0000076CEC6C6CE7606C67C00000000E0606D
:1027D000607C6666666666E6000000000000181809
:1027E000003818181818183C0000000000000C0CE5
:1027F000001C0C0C0C0C0CCCCC7800000000E06031
:102800006066666C786C66E60000000000001818D0
:10281000181818181818181C0000000000000000F4
:10282000006CFED6D6C6C6C6000000000000000040
:1028300000DC666666666666000000000000000058
:10284000007CC6C6C6C6C67C0000000000000000B2
:1028500000DC666666667C6060F0000000000000D8
:102860000076CCCCCCCC7C0C0C1E00000000000010
:1028700000DC6660606060F00000000000000000A6
:10288000007CC6C07C06C67C000000000000303022
:1028900030FC30303030361C0000000000000000FA
:1028A00000CCCCCCCCCCCC760000000000000000EA
:1028B00000C6C6C6C66C381000000000000000004C
:1028C00000C6C6D6D6D6FE6C000000000000000090
:1028D00000C6C66C386CC6C60000000000000000D0
:1028E00000C6C6C6C6CE7606C67C00000000000044
:1028F00000FE860C183062FE0000000000000E187A
:10290000181870181818180E000000000000181889
:102910001818001818181818000000000000701887
:1029200018180E181818187000000000000076DC47
:1029300000000000000000000000000000C0A0A097
:10294000A0C038203020380808080E00FFFFFFFF25
:10295000FFFFFFFFFFFFFFFFFFFFFFFFAA55AA5585
:10296000AA55AA55AA55AA55AA55AA55FFFFFFFF71
:10297000FF010101010101FFFFFFFFFFFFFFFFFF5B
:10298000FFFFFFFF0000000000000000000000004B
:1029900000000000FFFFFFFFFFFFFFFFFFFFFFFF43
:1029A000EFEFC7C783830101FFFFFFFFFFFFFFFFBB
:1029B00001018383C7C7EFEFFFFFFFFFFFFFFFFBAF
:1029C000F3E3C383C3E3F3FBFFFFFFFFFFFFFFBF9F
:1029D0009F8F8783878F9FBFFFFFFFFFFFFFFFFF53
:1029E00001FFFF01FFFF01FFFFFFFFFFE7E7E7E751
:1029F000E7E7E707FFFFFFFFFFFFFFFFFFFFFFFF27
:102A0000FFFFFF07E7E7E7E7E7E7E7E7FFFFFFFF8E
:102A1000FFFFFFE0E7E7E7E7E7E7E7E7E7E7E7E705
:102A2000E7E7E7E0FFFFFFFFFFFFFFFFE7E7E7E77D
:102A3000E7E7E700E7E7E7E7E7E7E7E7FFE7C3817F
:102A4000E7E7E7E7E7E7E7E7E7FFFFFFFFE7E7E7B6
:102A5000E7E7E7E7E7E781C3E7FFFFFFFFFFFFFFE8
:102A6000FFFFFF00FFFFFFFFFFFFFFFFFFE7C38147
:102A7000E7E7E7E7E7E781C3E7FFFFFFFFFFFFFFC8
:102A8000FFFFE7E7E7FFFFFFFFFFFFFFE7E7E7E7FE
:102A9000E7E7E7E0E7E7E7E7E7E7E7E7E7E7E7E7CD
:102AA000E7E7E707E7E7E7E7E7E7E7E7E7E7E7E796
:102AB000E7E7E700FFFFFFFFFFFFFFFFFFFFFFFF6D
:102AC000FFFFFF00E7E7E7E7E7E7E7E7E7E7E7E735
:102AD000E7E7E7E7E7E7E7E7E7E7E7E7FFFFFFFF26
:102AE000FFFFFFFFFFFFFFFFFFFFFFFFFFFFFFFFF6
:102AF000FFFFFFFFFFFFFFFFFFFFFFFFFFFFFFFFE6
:102B0000FFFFFFFFFFFFFFFFFFFFFFFFFFFFFFFFD5
:102B1000FFFFFFFFFFFFFFFFFFFFFFFFFFFFFFFFC5
:102B2000FFFFFFFFFFFFFFFFFFFFFFFFFFFFFFFFB5
:102B3000FFFFFFFFFFFFFFFFFFFFFFFFFFFFFFFFA5
:102B4000FFFFFFFFFFFFFFFFFFFFFFFFFFFFFFFF95
:102B5000FFFFFFFFFFFFFFFFFFFFFFFFFFFFE7C3D9
:102B6000C3C3C3E7E7FFE7E7FFFFFFFFFFC9C9C92B
:102B7000C9EBFFFFFFFFFFFFFFFFFFFFFFFF939387
:102B80009301939301939393FFFFFFFFFFFFE7E709
:102B900083393F87C3F93983E7E7FFFFFFFFFFFF73
:102BA000FF9D99F3E7CF9939FFFFFFFFFFFFC79321
:102BB000C7CF898133333389FFFFFFFFFFF3F3F37F
:102BC000E7FFFFFFFFFFFFFFFFFFFFFFFFFFF3E751
:102BD000CFCFCFCFCFCFE7F3FFFFFFFFFFFFCFE791
:102BE000F3F3F3F3F3F3E7CFFFFFFFFFFFFFFFFF85
:102BF000FF93C701C793FFFFFFFFFFFFFFFFFFFF2B
:102C0000FFE7E781E7E7FFFFFFFFFFFFFFFFFFFFB2
:102C1000FFFFFFFFFFF3F3F3E7FFFFFFFFFFFFFF00
:102C2000FFFFFF01FFFFFFFFFFFFFFFFFFFFFFFFB2
:102C3000FFFFFFFFFFFFE7E7FFFFFFFFFFFFFFFFD4
:102C4000FDF9F3E7CF9F3F7FFFFFFFFFFFFF8339D2
:102C50003931210919393983FFFFFFFFFFFFE7876A
:102C6000E7E7E7E7E7E7E781FFFFFFFFFFFF8339DC
:102C700039F9F3E7CF9F3901FFFFFFFFFFFF8339EA
:102C8000F9F9C3F9F9F93983FFFFFFFFFFFFF3E318
:102C9000C393333301F3F3E1FFFFFFFFFFFF013F76
:102CA0003F3F03F9F9F93983FFFFFFFFFFFF833946
:102CB0003F3F033939393983FFFFFFFFFFFF0139F8
:102CC000F9F3E7CFCFCFCFCFFFFFFFFFFFFF833970
:102CD0003939833939393983FFFFFFFFFFFF8339E2
:102CE00039393981F9F93983FFFFFFFFFFFFFFFF12
:102CF000FFF3F3FFFFF3F3FFFFFFFFFFFFFFFFFF14
:102D0000FFF3F3FFFFF3F3F3E7FFFFFFFFFFFFF333
:102D1000E7CF9F3F9FCFE7F3FFFFFFFFFFFFFFFFDF
:102D2000FFFF01FF01FFFFFFFFFFFFFFFFFFFF9F0F
:102D3000CFE7F3F9F3E7CF9FFFFFFFFFFFFF8339F3
:102D400039F3E7E7E7FFE7E7FFFFFFFFFFFF83391F
:102D50003939212121233F81FFFFFFFFFFFFC79367
:102D60003939390139393939FFFFFFFFFFFF03993D
:102D70009999839999999903FFFFFFFFFFFFC399E1
:102D80003D3F3F3F3F3D99C3FFFFFFFFFFFF0793DD
:102D90009999999999999307FFFFFFFFFFFF01996F
:102DA0009F9B839B9F9F9901FFFFFFFFFFFF01995F
:102DB0009F9B839B9F9F9F0FFFFFFFFFFFFF833919
:102DC000393F3F3F31393983FFFFFFFFFFFF39397B
:102DD0003939013939393939FFFFFFFFFFFFC3E7BF
:102DE000E7E7E7E7E7E7E7C3FFFFFFFFFFFFC3E72B
:102DF000E7E7E7E7E727278FFFFFFFFFFFFF393907
:102E000033270F0F27333939FFFFFFFFFFFF0F9FD6
:102E10009F9F9F9F9F9D9901FFFFFFFFFFFF3939F4
:102E20001111012929293939FFFFFFFFFFFF393926
:102E30001919092131313939FFFFFFFFFFFF8339AC
:102E40003939393939393983FFFFFFFFFFFF0399DA
:102E5000999999839F9F9F0FFFFFFFFFFFFF833982
:102E60003939393939292983F9FFFFFFFFFF0399E0
:102E70009999838793999919FFFFFFFFFFFF833982
:102E80003F3F8FE3F9F93983FFFFFFFFFFFF81A584
:102E9000E7E7E7E7E7E7E7C3FFFFFFFFFFFF3939B2
:102EA0003939393939393983FFFFFFFFFFFF3939A4
:102EB000393939393993C7EFFFFFFFFFFFFF393940
:102EC0003929292901113939FFFFFFFFFFFF39395E
:102ED0003993C7C793393939FFFFFFFFFFFF99992E
:102EE000999999C3E7E7E7C3FFFFFFFFFFFF0139A8
:102EF00079F3E7CF9F3D3901FFFFFFFFFFFF839F7E
:102F00009F9F9F9F9F9F9F83FFFFFFFFFFFFFFFFED
:102F10007F3F9FCFE7F3F9FDFFFFFFFFFFFF83F345
:102F2000F3F3F3F3F3F3F383FFFFFFFFFFEFC79335
:102F300039FFFFFFFFFFFFFFFFFFFFFFFFFFFFFF67
:102F4000FFFFFFFFFFFFFFFFFF00FFFFFFE7E7E7D8
:102F5000F3FFFFFFFFFFFFFFFFFFFFFFFFFFFFFF8D
:102F6000FF87F38333332389FFFFFFFFFFFF1F9F9B
:102F70009F83999999999903FFFFFFFFFFFFFFFF37
:102F8000FF83393F3F3F3983FFFFFFFFFFFFE3F33D
:102F9000F383333333333381FFFFFFFFFFFFFFFF43
:102FA000FF833939013F3983FFFFFFFFFFFFE3C98B
:102FB000CFCF03CFCFCFCF87FFFFFFFFFFFFFFFFB5
:102FC000FF893139393189F93983FFFFFFFF1F9FAD
:102FD0009F83999999999919FFFFFFFFFFFFE7E7F1
:102FE000FFC7E7E7E7E7E7C3FFFFFFFFFFFFF3F3F5
:102FF000FFE3F3F3F3F3F3333387FFFFFFFF1F9F89
:103000009F99999387939919FFFFFFFFFFFFE7E7C8
:10301000E7E7E7E7E7E7E7E3FFFFFFFFFFFFFFFF84
:10302000FF93012929393939FFFFFFFFFFFFFFFF18
:10303000FF23999999999999FFFFFFFFFFFFFFFFE0
:10304000FF83393939393983FFFFFFFFFFFFFFFF66
:10305000FF2399999999839F9F0FFFFFFFFFFFFF20
:10306000FF893333333383F3F3E1FFFFFFFFFFFFC8
:10307000FF23999F9F9F9F0FFFFFFFFFFFFFFFFF12
:10308000FF83393F83F93983FFFFFFFFFFFFCFCF76
:10309000CF03CFCFCFCFC9E3FFFFFFFFFFFFFFFF7E
:1030A000FF33333333333389FFFFFFFFFFFFFFFF6E
:1030B000FF3939393993C7EFFFFFFFFFFFFFFFFFEC
:1030C000FF39392929290193FFFFFFFFFFFFFFFF88
:1030D000FF393993C7933939FFFFFFFFFFFFFFFF28
:1030E000FF393939393189F93983FFFFFFFFFFFF94
:1030F000FF0179F3E7CF9D01FFFFFFFFFFFFF1E73E
:10310000E7E78FE7E7E7E7F1FFFFFFFFFFFFE7E70D
:10311000E7E7FFE7E7E7E7E7FFFFFFFFFFFF8FE7EF
:10312000E7E7F1E7E7E7E78FFFFFFFFFFFFF89230F
:10313000FFFFFFFFFFFFFFFFFFFFFFFFFF3F5F5F9F
:103140005F3FC7DFCFDFC7F7F7F7F1FF21000000D0
:1031500030000000310000003200000033000000A9
:103160003400000035000000360000003700000089
:103170003800000039000000400000004F4100000E
:103180004F4200004F4300004F4400005B317E007F
:103190005B327E005B337E005B347E005B357E00FD
:1031A0005B367E00D432000800000020D40000000E
:1031B000F8000008A8330008D4000020340C0000F8
:1031C000140100081001000043000000F8FFFFFF99
:1031D000004040404040404040404141414141402A
:1031E00040404040404040404040404040404040DF
:1031F000400502020202020202020202020202026E
:103200000220202020202020202020020202020272
:1032100002029090909090901010101010101010CA
:1032200010101010101010101010101002020202D6
:10323000020288888888888808080808080808081A
:103240000808080808080808080808080202020216
:10325000400000000000000000000000000000002E
:10326000000000000000000000000000000000005E
:10327000000000000000000000000000000000004E
:10328000000000000000000000000000000000003E
:10329000000000000000000000000000000000002E
:1032A000000000000000000000000000000000001E
:1032B000000000000000000000000000000000000E
:1032C00000000000000000000000000000000000FE
:1032D0000000000000003F000000000000000000AF
:1032E00000000000000000000000000000000000DE
:1032F00000000000000000000000000000000000CE
:1033000000000000000000000000000000000000BD
:103310000000000000000000000F0000000000009E
:10332000000000000000000000000000000000009D
:1033300000000000030000000000000054310008FD
:10334000583100085C310008603100086431000821
:10335000683100086C3100087031000874310008D1
:10336000503100084C310008783100088C310008D9
:103370007C3100089C310008883100088431000845
:103380009831000880310008A03100089031000811
:103390009431000800000000000000000000000060
:0833A000000000000000000025
:04000005080000B53A
:00000001FF
